:20000000483F00208D50000001CA011001CA011001CA011001CA011001CA011001CA011034
:1C00200001CA011001CA011001CA011001CA011001CA011001CA01103FCA011082
:20003C002DE9F0472C4D002850D0401E4AD0401E44D0401E0AD0401E4CD105294AD1106838
:20005C000C35286017792F71BDE8F087012941D1AF681078002FE8703CD0204801780024FC
:20007C004FF6FF7A8046A14234DDA0003E18385A82451ED0B078E0B105F11400EB1C1121B3
:20009C00C268934204D0491E00F11000F8D110E08146B078410805D3308801214A4603F0E3
:2000BC0037FEB078800804D3308802214A4603F02FFE98F80010641CE4B2D4E7012909D168
:2000DC00AD1C05E0012905D16D1C01E0012901D110782870BDE8F0878C0C00206C0500206B
:0400FC0004F0DABC76
:200100003C000000000000000000000034010000000000000000000001000000000000006D
:1C01200000000000000000000000000001000000000000000800000000000000BA
:20013C00340000000000000000000000680100000000000000000000010000000000000005
:14015C00010000000000000000000000080000000000000086
:2001700030000000000000000000000098010000040000000000000001000000FFFFFFFFA5
:10019000FF00000001000000080000000000000057
:2001A0002C0000000000000000000000C4010000040000000000000001000000FFFFFFFF4D
:0C01C000FFFFFFFF08000000000000002F
:2001CC0034050000E401000099A1011095A70110A5C2011009B2011045B80110000000000B
:0801EC00000000002F000000DC
:2001F400280000000000000000000000140200000000000000000000FFFFFFFF00000000B1
:080214000800000000000000DA
:20021C00300500003002000069C201106DC101101FC2011095BA011000000000000000008E
:04023C002D00000091
:20024000300500005402000075C20110A9B601109DBF011049B601100000000000000000DE
:040260002E0000006C
:200264002400000000000000000000008002000000000000000000000000000008000000CC
:040284000000000076
:20028800240000000000000000000000A40200000000000000000000000000000800000084
:0402A8000000000052
:2002AC00240000000000000000000000C8020000000000000100000000000000080000003B
:0402CC00000000002E
:2002D000000000000C1200200400000000000000000000002000000070010000300000000B
:2002F0001C020000141200200400000000000000000000000C00000030040000180000002E
:20031000400200001C120020040000000000000000000000240000004804000018000000B1
:20033000000000002412002004000000000000000000000010000000A00100002C00000076
:20035000CC0100002C120020040000000000000000000000200000006402000024000000B4
:20037000FFFFFFFF3412002004000000000000000000000028000000880200002400000031
:20039000FFFFFFFF3C120020040000000000000000000000580000003C0100003400000016
:2003B000FFFFFFFF441200200400000000000000000000001000000060040000180000002B
:2003D000FFFFFFFF4C1200200400000000000000000000001C000000AC02000024000000A1
:2003F000FFFFFFFF5412002004000000000000000000000038000000F40100002800000012
:20041000FFFFFFFF5C12002004000000000000000000000054000000000100003C000000AD
:1804300018000000000000000000000040040000080000000000000050
:1804480018000000000000000000000058040000080000000000000020
:18046000180000000000000000000000700400000800000000000000F0
:0804780001000000A86D000066
:040480000068704759
:040484000100000073
:0404880000000E0062
:04048C0000000F005D
:040490003200000036
:040494000100000063
:0404980050110020DF
:04049C00000200005A
:0404A0000000000058
:0404A40001CA011078
:0404A8000000000050
:0404AC00000000004C
:0404B0000800000040
:0404B4000000230021
:0404B80038100020D8
:0404BC00010000003B
:0404C000681100209F
:0404C400080000002C
:0404C8000000000030
:0404CC00000000002C
:0404D0000000000028
:0404D4000000000024
:0404D8000000000020
:0404DC00010000001B
:0404E000A010002048
:0404E400060000000E
:0404E800010000000F
:0404EC00A40F002039
:0404F0000000000008
:0404F4000000000004
:0404F80000020000FE
:0404FC0000000000FC
:02050000704742
:020502002900CE
:020504000100F4
:020506002500CE
:020508002D00C4
:02050A002E00C1
:02050C002F00BE
:02050E000100EA
:0105100001E9
:0805140003000000706D0000FF
:08051C000000000000000000D7
:0405240000000100D2
:0405280000000300CC
:04052C0087C401106F
:04053000380500008A
:040534003805000086
:0405380000000000BF
:04053C00900000002B
:040540009000000027
:0405440000000000B3
:040548006811002016
:04054C000366000042
:040550002000000087
:04055400186D00001E
:04055800E06C000053
:04055C000DC30110BA
:040560000760000030
:04056400F76100003B
:0405680099C801101D
:04056C009BC8011017
:040570000000000087
:04057400DF6C000038
:04057800306C0000E3
:04057C00486C0000C7
:04058000186C0000F3
:0205840008006D
:0205860009006A
:02058800010070
:02058A0000006F
:01058C00016D
:040590000000000067
:040594000000000063
:04059800000000005F
:04059C00000000005B
:0405A00003690000EB
:0405A40021550000DD
:0405A8009960000056
:0405AC009D58000056
:0405B000CB59000023
:0405B4000D5C0000DA
:0405B800F942000004
:0405BC00556700007F
:0405C00001480000EE
:0405C40011C8011049
:0405C80021C8011035
:0405CC000800000023
:0405D0002400000003
:0405D400180000000B
:0405D80028000000F7
:0405DC0020000000FB
:0405E0003C000000DB
:0405E4000C00000007
:0405E80034000000DB
:2005EC002DE9F04F0120ADF15C0DADF81A000827ADF8187006A805F02BFA00263546DF4CC3
:20060C008DF854509DF81C006070A6700898E0614FF6FF70A082384605F04AFD5FEA00084C
:20062C000CD00121122206F088F805F051FD15A90123D64A0091414604F016FF9DF85400B7
:20064C00DFF86C83324601232070414604F1A80004F044FC04F1CC0032460223414604F06B
:20066C003DFC04F1F00032460423414604F036FC042031461022E07004F1480003F09CFC1F
:20068C0004F158003146102203F096FC2562267266720720E67204F148021021A0720220B9
:2006AC0005F08EF804F158020320102105F088F8042004F12002014605F082F819E0A07899
:2006CC00B4F84050B4F84230B4F84420B4F8461006280ED1ADF84250ADF84430ADF846203A
:2006EC00CC48ADF8481006F002F9012010A903F021FC0A20ADF80A00ADF808704FF0FF3599
:20070C00039502A805F0A4F9002840F0E38130460C90ADF824700925ADF8265009A805F003
:20072C0097F9DDF82C900028CDF8309040F0D281BDF82800102840F0C18160789DF82A102E
:20074C00884240F0BB814D4628884FF6FF71814200F0AC812B78A23B00F091812E3B40F064
:20076C00AD81A878B046002800F05E81801E00F03681401E012840F20B81801E00F0B980E1
:20078C00401E7FD0401E60D0083800F06981801E40F06B8194F83E30A888052BADF834000B
:2007AC004BD001208DF83E009A4806F0A0F894F83E00012820D004281ED003280DD002288F
:2007CC000BD00C98C188ADF836100189ADF838104189ADF83A1080892BE0B4F84000B4F87E
:2007EC004250ADF83600B4F84430ADF83850B4F84600ADF83A301CE0B4F84000E98888420F
:20080C00D8BF081CADF836002989B4F842008842D8BF081CADF838006989B4F84400884288
:20082C00D8BF081CADF83A00B4F84610A889814200DC0146ADF83C1001E08DF83E60B24A08
:20084C000DA8122105F057F80FE1B04806F04FF86878002840F00981E888E0822889208353
:20086C00688960836B4805F0EFFE002840F0FD80A56A002D00F0F9802B68E08A218B628BF3
:20088C009847F2E0B5F804A00A2005F011FC5FEA00080AD00121152205F04FFFA8F808A00F
:2008AC0005F016FC414605F049FABA483146062203F082FBE68226836683A87960735548CA
:2008CC0006F015F8914806F012F84FF001084FF6FF706379A0824BB9A879082814BF0420EA
:2008EC000520A070404605F0C1FDBEE00320A070BBE06878002843D1A649281D02680A60EE
:20090C00808888800623A3706889A082E889E082288A2083688A6083E878207394F83E00B2
:20092C00012818BF022808D11F2004F08FFC4FF47A714143374804F0D1FD95F803B0B5F80A
:20094C000AA0142005F0B4FB5FEA000800F090800121142205F0F1FE88F808B02D1DC8F83A
:20096C000C50A8F810A0042088F8120005F0B0FB814A414604F05AFD7AE0C0466C050020DB
:20098C00687831286AD12671042022E0396700006878002862D1A878618AA278032813D00C
:2009AC002079657931B9012814BF6671267107E079640000054303D0724804F08FFDA2782D
:2009CC00072AE1D1062004E0062A06D0207910B90320A0704CE00220FBE70720F9E768786C
:2009EC0000283BD1EB78A078E179ABB9022818D0072816D0062802D16179012911D1032845
:200A0C000FD0604805F020FE58B9012005F02EFD07E0C046380600205F4A404604F096F8E2
:200A2C0068706878D0B920E06878B8B9564A0220102104F0DFFE554A0320102104F0DAFE95
:200A4C005648ED1C29680160AB888380544A01252846A179A57004F079F848B1A77007E0FE
:200A6C00A888464A102104F02DFFB8F1010F25D1606A18B3016809B3A07888471EE068792A
:200A8C0013281BD12889012808D1A07B022805D11E4805F02CFF04F0B5F90FE0052004F025
:200AAC00D5FB0146194804F019FD07E06888C00B04D3374A0420014604F09CFE0C9848B118
:200ACC00ADF810700320ADF81200CDF8149004A804F0BEFF208A65792179420831D320F0C5
:200AEC00010055EA010320822BD08DB92D49207A8DF84A00657A8DF84B500A6813AB1A603B
:200B0C008988998007E0C046A16800005C06002003208DF84A00A07AE57A194A8DF8520082
:200B2C0006218DF853500DF14A0004F0CBFA616A30B1A77021B1086810B1096838468847D5
:200B4C00208A810807D3184920F002002082304603F0F0F9208AC108FFF4CBAD20F0040023
:200B6C00A57B2082681E3FF4AAAD401E7FF4C1AD04F048F9BDE5C04601670000C5680000E6
:200B8C00B968000014060020B4050020C40500208C050020A4050020F305002098050020DD
:200BAC00D40500209E050020AA0500202DE9F04F08260127ADF15C0DADF8106004A8ADF886
:200BCC00127004F045FFCF4C9DF814002070069804F12C050021A060284605F061FFCA4940
:200BEC0041F28832042304F16C00E56004F076F900251F200621656004F0DEFC5020ADF899
:200C0C003E008DF84E70A846ADF83C8039468DF84F700DF14E02ADF842804FF44870ADF8E0
:200C2C0040004FF47A70ADF8440040F2053000F0B5FD40F2063002210FAA00F0AFFD4FF426
:200C4C0042701E2104F14D0200F0A8FD40F20730072104F11C0200F0A1FD4FF44470394616
:200C6C000DF14F0200F09AFD40F2113002210DF13E0200F093FD40F21230022110AA00F0FD
:200C8C008DFD40F2133002210DF1420200F086FD4FF44570022111AA00F080FDC6490320FC
:200CAC0004F0A6FB0620A02104F086FC0720A02104F082FC3046A02104F07EFC0920A0214D
:200CCC0004F07AFCCDF83880B9468DF852804FF481608DF8509004218DF851900EAA8DF87A
:200CEC00539004F04FFC4FF48060394614AA04F049FC40F2024039460DF1510204F042FCB7
:200D0C0040F2034039460DF1520204F03BFC40F2064039460DF1530204F034FC032004F0D1
:200D2C0083FD042004F080FDB948BA4A132104F0ABFA4FF0040AB84DADF81C602878ADF808
:200D4C001EA08000089007A804F082FE00280CBF099F4746B1488346876087B12B7843B1EE
:200D6C004FF6FF713F1F404627F8041F5B1EB870FAD1AB4A0BF11400112104F085FA02274D
:200D8C008DF857A048468DF8557003238DF85400A4498DF856300DF1460740460A68097937
:200DAC003A6015AA39714946FFF742F9484649460DF15502FFF73CF9022049460DF15602C0
:200DCC00FFF736F9032049460DF15702FFF730F9504605210DF14602FFF72AF904F1180092
:200DEC00AF78CBF8040037BB04F1140095F801B095F803906862182005F05AF9071C1AD049
:200E0C005146424605F0DAFB584605F0E4F8387287F8099087F80A8005F14800F86005F117
:200E2C0058033B6105F120027A6105F051F97E4A394604F0FBFA0C2005F03AF9071C0BD0FB
:200E4C000121524605F079FC04F12400B86005F03FF9394604F072FF0120102104F0FEFCE0
:200E6C000220102104F0FAFC704942F22F0004F0A7FF0A20ADF80200ADF800604FF0FF3728
:200E8C000197684604F0E4FD002840F0A88000200D90ADF828600927ADF82A700AA804F0AC
:200EAC00D7FDDDF830800028CDF8348040F09280BDF82C004FF00109102855D120789DF835
:200ECC002E10884250D1454628884FF6FF7181421CD02878B02847D1687816280CD16888C3
:200EEC00314604F0D3FE38B9484604F03DFF0D984FF00009206137E0297905F1080005F0E1
:200F0C000DFA31E0080200208D650000688800092AD3256945B36078B5F802B0401C6070B2
:200F2C0095F804A0102005F0C3F80835071C1BD00221152205F001FCA7F808B087F80AA07D
:200F4C00FD6005F0C5F83A4A394604F06FFA0546162D09D0042D07D020694088002104F041
:200F6C0095FE284604F000FF0D98002832D0B9F1000F2FD0404605F001FA2BE0E0680546D6
:200F8C0005F08AFD854208BF002702D0876805F0E9F9381C1ED03888401E0FD0401E10D1FE
:200FAC00B87818B1801E0CD1022000E0002016A904F044F805E0C0469B680000B87801F091
:200FCC00C7FFADF808600520ADF80A00039702A804F03EFDE06805F05BFD0028CED06088A8
:200FEC00C108FFF446AF20F00400608005F0F6FB02200DF1590104F021F800287FF439AF50
:20100C00032001210DF15902FFF712F831E7C0465C0B00204C6D00006C0500208C0C00207F
:20102C00586D0000926D0000A7680000876800000F6700002DE9F84F8046DD480122A0F170
:20104C0030010A60D7490F68002FFCD0D74ED64AC02706F1040B1760DBF80010890804D264
:20106C003168090C41F0F00100E07221E34AE44D4FF0000982F85412A5F1D407C0F80090E2
:20108C00D6F808A03868C0F3046005F017FB5246534600EB2270401C162805DA10F10A0FCF
:2010AC00B8BF6FF0090000E01520E649E64F00F01F0040F4F8500880386880083ABFE3486D
:2010CC00C0F8009042F04062E149A5F13C04D00E970E80F0010000F00100086087F0010023
:2010EC0000F0010088602068C0F38367C0F38F215FEA9A4022D243F3072000280BD5424283
:20110C004846490805D17F0806BF0127391C4FF6FF71521EF5D1002810DD4FF6FF72490046
:20112C0041F001018A4207D27F0047F001070F2F92BF01210F27111C401EF0D141EA074167
:20114C00182004F0BBFA20682768C34CC0F3870140F2FF324B4607F0030041EA002127469A
:20116C0088B22C210090A7F1400003F093FEA5F110073868C0F30D011C2004F09FFAB5491B
:20118C0057F8080C014000F07C400143142004F095FA57F80C1C01F47C000904090C0143AA
:2011AC00102004F08BFA57F8042CDBF80010C2F30350C2F30343490812D231680E0510EB39
:2011CC00267003D41028A8BF0F2000E04846090413EB217303D4102BA8BF0F2300E04B469F
:2011EC0043EA001302F47F4002F0FF01B8F1220F40EA034041EA000124BF02F0804211439E
:20120C000C2004F05BFAB8F1220F32BF01202868C0F30070B8F1220F4FEA400040F020000B
:20122C0084F8090126BF2868C0F3407001208B4EB8F1200F40F0100084F8090138BF494626
:20124C0006D33168C80C00F44070C1F384510143282004F033FAB8F1200F26BF3068C0F35A
:20126C0001504846B8F1220F4FEA400040F0600084F80C0126BF2868C0F3C0604846B8F198
:20128C00220F4FEAC00040F0800084F8010126BF2868C0F345504846B8F1200F4FEA80000E
:2012AC0040F47C40A4F89C0138BF6D490AD3306801038A15920501F47C1100F00F001143C8
:2012CC0041EA0031082004F0F9F92E464FF480002060A6F1D000816D40F20F226FF31F4167
:2012EC008A4213D901680068C1F30367C0F3034007B17F1E072805D006280EBF0720801C2E
:20130C0000F00F003D4947EA00100870CAF381477F1E02D07F1E28D023E03168880C20D2D8
:20132C004FF4804020604F48D0F802204B0AC1F3033703F0800322F08F02134347EA0302B5
:20134C00C0F80220D0F801300F0A67F30303C0F80130026801F0E70722F0E70247EA0201D4
:20136C0002E04FF0004120460160DBF80000C0F3C0070FB94020A0624FF400703E4F2064FD
:20138C0028684FF04008C0F3C14040F0300084F8C800CAF38150A8B3401E0BD0401E28D05A
:2013AC00022127E09402224300600C40AC3F005040100940012004F019FF05460420294671
:2013CC0003F088FC042004F011FF8542FAD12648056825F07F4004F083FB38461430006885
:2013EC00036807214FF06022280E98474FF4806020600321042003F06DFC0AE0026008409D
:20140C008C1300500420012103F064FC174804F067FB203E30681649164B47F6180500F083
:20142C003F0084F8CB0F3A460D8018681068C168022088471248114EC0F800800121316048
:20144C00BDE8F88F6E6208400000094094042A4300002043FCFCFC0040A00C409813005070
:20146C0000803F400A600840A83F0050BD37860070B00C402C200940A00100109404604212
:20148C0000600C402DE9FE43BD4C0F460646F80B80F05081B80880F0CB806069B90F69D208
:2014AC00A07A00284AD138094AD3002501266570B448267205F050F9B3492A4604F14C00C5
:2014CC0005F00CFA607901281FD1A079E8B9DFF8BC82266AD4F81490D8F8000070B105F05E
:2014EC0045F8A0EB09004346000B8619E0611868B6EBC01F28BF256208D2266204F1C8000E
:20150C004FF0005104F0EEFF31E0667140F60901218794F8451001F0F00141F0010184F80C
:20152C004510658794F8441001F0F00184F84410974EE56304F13800306018E0380914D2C3
:20154C00B80BC0F0148104F1280005F0CEF9061C08D0706830B17568F068B6F91C100022B9
:20156C002023A84727F4005701E10020A07227F00807FCE0D8B1042004F038FEB8B104F071
:20158C00F5FFA0616169814226BF401A401E401A000BF060F06840F6C41100F58D70814253
:2015AC00F06003D340F2EE22824200D9F1600025D6F818C06561BCF1000F10D094F84500CB
:2015CC0010F00F0F0BD1708C40F60901814206D130466FF480712A464FF00073E0476D4966
:2015EC0004F14C002A4605F079F9A07950B10220ADF80000684604F063FCA571BDF8080012
:20160C00A4F8A000012060702079A846401C2071192084F8078005F01FF875692DB1414692
:20162C0030464FF080630A46A84727F000579EE004F13008404605F058F9061C71D0B06867
:20164C0040F603022025531C02E040686D1EEDB260B15DB101888A4218BF8B42F5D1F168A4
:20166C002CC820312CC129C881E82900B2694FF00009C6F818907068C8B1F07F42F00202EA
:20168C00002300F00700401E09D0401E04D0801E08D14FF0805304E04FF0804301E04FF02C
:2016AC0000534A467568F068B6F91C10A84705F0EBF90546B4F93600401C6FF31F30E086C2
:2016CC00206B1F30017801F07F010170404604F0B5FE284605F0D4F9F068B0F99410B4F91A
:2016EC00362091421DD1217801291AD090F8965095B9056885B1E1680968B1F1FF3F10D041
:20170C00254909687030B5FBF1F105F0B5F9F068703005F0ADF904E080F89690484603F073
:20172C000DF8404605F0E1F827F0020708B147F002071CE005F0A8F9014604F12C0005F03C
:20174C00D4F80646B569084605F09AF9A8080CD25EB1B069A843B061706830B12A46F0683E
:20176C00B6F91C1075680023A84727F4804727B104F1C800394604F0B5FEBDE8FE83C046CA
:20178C0088080020D93A00002D600000F01C002000100440492D0000A06D0000F8B5A0F2AB
:2017AC00013517460E46022D40F214818A4A8B498B4B2D1F0F2D04D9143D4AD0AD1E1CD03B
:2017CC0011E0DFE815F0C300BC00F400E400B300AB000701A2009A0010001000920088000D
:2017EC0079006F006300282880F2F480022E40F0F180398803F0E0FEF8BD012E40F0EA807B
:20180C0015462879012800F0E58051793878507181B9002800F0DE809078012800F0A9800D
:20182C00042800F0A680062800F0A380052800F0A080F8BD3878002840F0CC8090780328A0
:20184C0000F0A280072800F09F80052800F09C80F8BD012E40F0BE803878012840F0BA805E
:20186C00154605F1F00004F0EFFE002840F0B2802C46002004F13E0102F05CFB002840F049
:20188C00A98004F1CC0005F032F8F8BD022E40F0A18038880A28C0F29D80B0F5486F00F3ED
:2018AC00998015E0022E40F095803888B0F5FA7F80F290800880F8BD022E40F08B803888D1
:2018CC000628C0F28780B0F5486F00F383801946891C0D4638E0022E7CD13888062879DB95
:2018EC00B0F5486F76DC1946F3E7012E72D1387806286FDA891F0D460EE0012E6AD1387859
:20190C00042867DA15460B3506E0012E62D1387808285FDA15460A352870F8BD012E59D112
:20192C003878042856DA1546093506E0012E51D1387804284EDC154608352946DBE7022EC0
:20194C0048D13888154612352946B3E7012E41D11546687901283DD011793878107161B96F
:20196C00002837D09078012803D0042818BF052830D1012004F07AFDF8BD387850BB9078F3
:20198C00022818BF052825D104F03EFEF8BD154605F1870400211F22204602F00DFB394615
:2019AC003246204602F044F80020EE710EE0154605F1680400211F22204602F0FDFA3946B5
:2019CC003246204602F034F80120AE713146224603F0BCF8F8BDC0466C050020B005002018
:2019EC00AC0500202DE9F04F0128ADF1140D40F0F280DFF81492D9F8DC00012840F0E9803F
:201A0C000220C9F8DC0005F02FF80290012003F0ADFA20B101210646C9F8DC10D5E005F0FC
:201A2C001FF803906E484FF00008C0F80080012004F0DCFB012818BFCDF8008004D140462F
:201A4C0002F088FF0120009066486E4CC0F800801934D4F8FF0F112004F0B4FE00280CBFBF
:201A6C0046460126102004F0ADFE08B146F002060F2004F0A7FE08B146F004060B2004F001
:201A8C00A1FE30B1584800685849006B0246088890470A2004F096FE0028404618BF01209F
:201AAC004FF0805B0BF5DC7528B128685049006B0246088890474F480127076028688069F4
:201ACC00014646F0200088474B48076004F074FE00F001010191400815D2484804F0F5FD05
:201AEC008246BAF1040FF8D0BAF1010F06D1DBF8D8014068024641480321904740490868E1
:201B0C0020F003000860404600F080F82868D4F8FF1F806B8047019801280ED0BAF1010FC9
:201B2C0006D1DBF8D801406802463448394690473349086840F0030008602A480760286864
:201B4C0040690146304688470B2004F03BFE28B128682649C06A0246088890470A2004F01D
:201B6C0031FE28B128682249C06A024608889047204807600322C9F8DC201F4BC3F8008027
:201B8C002868406B0146304688470128F8D1042003F0ECF9124807601A48D4F8FF1F01680E
:201BAC008909FCD30098012802D1384602F0D2FE04F0FCFD082003F0D9F906460398C9F862
:201BCC00DC7004F049FF02F08BFD029804F040FF02E0042600E00126304605B0BDE8F08FC8
:201BEC000C40094000022243B8010010AE6B0000AA6B0000282008608001044300400340EB
:201C0C002422084014100940B00D00202DE9F84FDFF8E8B10746ABF13500DFF8D491006851
:201C2C00800880F0D68004F037F9064677480830D0F8008000254FEA28725FEA985002F17F
:201C4C0001020AD2C6F13E0016F10A0F4FEAE000D8BF08208242B8BF021C624BD3F87C015E
:201C6C00C0F3046004F02AFD04461868C0F3044004F024FD12198246162A05DA12F10A0F22
:201C8C00B8BF6FF0090200E01522574B574802F01F0141F4F8511980006810F0030F18BF85
:201CAC000125C00828BF45F002050FB145F00405494691F90700301A052804DA8879A842A9
:201CCC0008BF888865D0DFF82CE10F2EA6F10F0C25DB0CEB0610A0F1F00C4FEA2C27072FBD
:201CEC0088BF07273C46062C88BF06245EF82400042303EB84037446E3581B1A03F0FF0408
:201D0C00E80824BFC3F307200444A80824BFC3F307400444680828BF04EB136401E0002425
:201D2C0027465EF827E0E8080EF0FF0324BFCEF307200344A80824BFCEF307400344680879
:201D4C0028BF03EB1E63A4B2ACEB0727AAEB02007C43002804F1800403EB1423D8BF012032
:201D6C00342208F0FF0742437A43B2FBF3F04FF6FF72824238BF101C802E80B2888005DACD
:201D8C0016F1800FB8BF6FF07F0600E07F26CE718D71194A12681F280A604FF0000208D3DA
:201DAC0040F2FF11814206D24008521C8142FBD301E01F208880124F0F38000942EAC0022C
:201DCC0047EA0200CBF8FB0F0026CBF8FF6FBDE8F88F0D4F0B4E494608203760891D087053
:201DEC00BDE8F88F3C1100506E62084024220840F41C00209C13005008200940350009404A
:201E0C0000E7A48030100940FDFDA400AC3F00502DE9F0411C4615468C4208BF854282BFA8
:201E2C0000230022E5E0002C08BF002D0AD100290EBF00286FF000006FF0000100F0E1F8EB
:201E4C00BDE8F0815FF000085FF0000E002C08BF8D429CBF2C1C0025070C47EA01470E0C7C
:201E6C00B44208BFBD429EBF5FEA044444EA15445FEA0545070A47EA01670E0AB44208BF13
:201E8C00BD429EBF5FEA042444EA15645FEA0525470847EAC1774E08B44208BFBD4200F293
:201EAC009380870847EA81778E08B44208BFBD427CD8C70847EA4177CE08B44208BFBD425B
:201ECC0066D8070947EA01770E09B44208BFBD4250D8470947EAC1674E09B44208BFBD4248
:201EEC003AD8870947EA81678E09B44208BFBD4224D8C70947EA4167CE09B44208BFBD4290
:201F0C000DD8E60146EA5566EF01B14208BFB84201D3C01BB14158EB08085EEB0E0EA6015A
:201F2C0046EA95664FEA8517B14208BFB84201D3C01BB14158EB08084EEB0E0E660146EA01
:201F4C00D5666F01B14208BFB84201D3C01BB14158EB08084EEB0E0E260146EA15762F01BB
:201F6C00B14208BFB84201D3C01BB14158EB08085EEB0E0EE60046EA5576EF00B14208BFBE
:201F8C00B84201D3C01BB14158EB08084EEB0E0EA60046EA9576AF00B14208BFB84201D3DA
:201FAC00C01BB14158EB08084EEB0E0E660046EAD5766F00B14208BFB84201D3C01BB141FB
:201FCC0058EB08085EEB0E0EA14208BFA84201D3401BA14158EB08085EEB0E0EA34208BF34
:201FEC00AA423EBF2D0A45EA0465240A89D3734642461E4617460B46024631463846BDE85E
:20200C00F08170472DE9F843814604F0C9FB002100B901216B4E30680028FCD06C4D01249D
:20202C002D1DEF6A346009B104F0C0FBDFF89881C7F3072008F1BC01086004F0B1FB002144
:20204C0000B9214630680028FCD02F68346009B104F0ACFBC7F38440C8F8C00004F0A0FBBB
:20206C000146002001B92046014630680028FCD0ED69346009B104F099FBC5F38120C8F8B5
:20208C00D000B9F5C061C8F8B81000F0968098F8D80068B9C8F8D410D8F8C000C8F8C800C2
:2020AC00D8F8BC70C8F8C470D8F8D060C8F8CC60D8F8D410D8F8BC60002954BF02206FF0DB
:2020CC000100454605F1C8031A6801EB41014018411000EB917002EBA0021A60D5F8C810B4
:2020EC00C5F8C46000291CDD1E293DDDD5F8CC0030B93429B4BF15391E21C5F8C81025E0F7
:20210C002A29BABFD5F8C8000B381E20C5F8C800D5F8C4003F28B4BF401C3F20C5F8C400A5
:20212C001FE0D5F8CC00032812D011F10B0FC6BFD5F8C8000B30201CC5F8C800D5F8C4002B
:20214C000028CCBF401E0020C5F8C400032009E011F1150FC6BFD5F8C8001530201CC5F837
:20216C00C8000020C5F8CC00B5F8C400174E30214FF47F4208230090304602F08BFE009477
:20218C0004214FF400321123304602F083FEB5F8C80004214FF4F80212230090304602F078
:2021AC0079FEB5F8CC0020214FF440620A230090304602F06FFEBDE8F883002088F8D800D3
:2021CC00BDE8F88300800C40B00D002000A00C4000A00C402DE9F04FADF1840D00F020FDC1
:2021EC0002F034FE0026012804D104F0F7F8022808BF01265F490868C0F38150012806D1F4
:20220C0051F80C0C0127010E07FA01F006435A48614F007807F12C00036802F017FE03F08C
:20222C007F03012804D104F0D9F8022808BF5B1C524D2B602C463BB1FF2104F140001F46A3
:20224C007F1E00F8011BFBD14D4800684FF0000900F0FF01FE291BD0DFF824C100F0FF07FC
:20226C0049460122FF2F0CD0BB427FD902FA07F73E427BD100F0FF0047EA0909201880F899
:20228C0040105CF8040F491C00F0FF07FE2FE9D1092001F099F83A480021242208236060BA
:2022AC0017A804F0D1FB4FF0010804F1240017AA8DF87480414604F0C3FB236843B3002717
:2022CC0094354FF0040BBA4608FA07F0064219D119EA000F04BF07F0FF0141F4C04105D0D9
:2022EC00E019274990F8400051F82010254801F04FFAF8B24FF0FF3103F086FF2368C5F8A8
:20230C0000A001E0C5F800B07F1C2D1D9F42DBD301A800213022082304F08EFB0025FF2047
:20232C00102101AB0990184A009504F1080004F07FFB0DA828220823294604F075FB04F1C7
:20234C0060000DAA1395114914952B4604F068FB0F4951F80D0C20F4F85040F4005041F814
:20236C000D0C4746C1F8FF7F0A4E376021B0BDE8F08FC046B43F0050001D0020001B0020CF
:20238C008C6C0000007FC76731620000055000000D30094008000940181300502DE9F84301
:2023AC00674C04F1240004F0A0FA15460E46009004F06AFB05F001078146B6F1FF3F0CD199
:2023CC00A06A20B9B4F93600401C06B202E0A06AB0F91C60002084F8A300304603F0DAFC88
:2023EC000326002800F09B80A16ADFF84081814269D0009FB8422ED03FB100990A68904272
:20240C0009D0096800290091F7D1832E41D0484604F036FB3DE004F1A40003F0A9FE009887
:20242C000168AA0802D20A6802600846002202600091009818B9484604F022FB28E0C17F1A
:20244C0041F00401C177684603F0F8FF0146404603F082F9EDE704F1A40003F089FEA80898
:20246C003ABF606A006800206062484604F008FB0099C87F40F00400C877684603F0DEFFED
:20248C000146404603F068F9009808B1A808EFD28326E07988B9207A012843D0244804F0D4
:2024AC005BF9022104F1C80004F01CF86078012838D0204804F050F934E004F1C800022132
:2024CC0004F010F82EE0A90803D3616A009100266662C27F0121B9401143C17704F0C0FA7F
:2024EC000446002F14BF1448144803F0E9FC484604F0C6FAA80801D3009820B9204604F063
:20250C00ABFA83260EE0C17F41F00401C177684603F094FF0146404603F01EF9ECE7484659
:20252C0004F0AEFA3046BDE8F883C046B8080020911400002D360000010002040100010462
:20254C00880800202DE9FC415E4C574D574EDFF860815A4F94F8E410481E0B2861D8DFE8FF
:20256C0000F07B2C43062343062343067664042907D001220A2945F8212C14BF02200320C1
:20258C0004E02021012045F8211C024684F8E200002045F8390C0827C5F8FF7FC5F8F37F8E
:2025AC0045F8392CBDE8FC81052914BF09200620002584F8E400356070E094F8E170012093
:2025CC00383D002FC5F81B0004BF0620002102D00021F160032084F8E400032045F8010C35
:2025EC0031603068800859D294F8E400012503280DD00021404660220523009102F04AFC3B
:20260C0094F8E400062814BF0A200720D1E702200090002160220523404602F03BFC0420E4
:20262C00C7E704F0F9F9BDE8FC812249002622480E60012505600E2000F05CFE022003F057
:20264C007FFA84F8E45084F8E360BDE8FC81002038600C2578601FE019480068006801462C
:20266C00202088472C3D41F61D560F2000214FF4C072072345F8010C4046C5F80360022526
:20268C00009502F007FC404600214FF4C072072302F07CFD0120386084F8E45004F178001D
:2026AC0004F0E6F9BDE8FC8139400C4038600C4000A00C402C500C4004800C4034600C400C
:2026CC00A0010010B00D00202DE9F84F994692468B46064604F0D8F9564C0090B4F9361045
:2026EC00B4F934000AAF401A40F6F8710140082980F29080B4F9340004F59875401C6FF3A2
:20270C001F30A0860820B4F93480EB7F33F07F0304D0401E05F12005F7D1002506F17000FF
:20272C0003F026FDC5F808B085F81EA0C5F80490A5F81C804048EE6097E80C002021002774
:20274C001940104005F1100383E8030004F12400EF770368002B50D1294602F0FDFF002892
:20276C0051D0A6F89480E87F40F08000E87786F89670607A40B1607830B10120A0726772F0
:20278C00A7712079401C2071009804F079F9A06A00284BD1607860BBE079012846D004F0C4
:2027AC0073F90646207A00BBA86802F0B9FA244A2249E3681268086040B9304604F060F989
:2027CC0004F1C800042103F08DFE2FE00968DB6804F1A400C91AB1FBF2F104F04DF904F190
:2027EC00A40004F045F930461EE0164901200870F9E7192003F030FF18E004F124002946D0
:20280C0002F0AAFF48B9B4F9340000F6FF706FF31F30A0866FF0010805E0A6F89480E87F8D
:20282C0040F08000E877009804F02AF94046BDE8F88FC04688080020F1EFFF9FF01C0020BC
:20284C00A06D0000EC1C00202DE9F043584CE2680746880FADF1140DC0F09A805068406833
:20286C0008B18047E26851684B4E886808B9CD687DB13568002DFCD00022326010B180474A
:20288C00E0684168C86800B180474A48503803F017FB4FF00008C6F80080404846F81C0C01
:2028AC003F4803F059FF424640F60A01218704F13800BD686287037B03F0F00303738146ED
:2028CC00C4F83C8094F845006A8000F0F00040F0010084F8450000E01D466B6813B118886D
:2028EC008142F9D1C5F80490687B00F0F000687304F1240003F0F9FF80680088C91F814231
:20290C001ED0491C81421BD03B8CCBB197F82C0097F82D30C7F8248000F0F00087F82C00D2
:20292C0003F0F00040F0010087F82D0007F12001E16399F80D007A8400F0F00089F80D0064
:20294C00184801688468C368009110226946406B019420F0784040F080500390124802938F
:20296C0001F066F830680028FCD0C6F80080012003F03CFC012808D0687B00F0F00040F0F2
:20298C0001006873094803F0E7FEB86846F81C0C05B0BDE8F083C0461C10044001010E0449
:2029AC00911400004C13005018000021B54900008808002051000706F8B5414C201D036890
:2029CC00B3F1FF3F08BF002302F040FA002876D13C4E20683468070F04F0FF04802C28BF36
:2029EC00002402F033FA4FF0FF3578B1401E07D0401E012802D9801E13D014E08FB112E0AE
:202A0C00381C5CD0801E0ED114340BE03846401E55D0801E53D0001F51D0401E03D11634FC
:202A2C0000E00A3465B2162D49DB27482749002501270560264E0F60264C376020680028C1
:202A4C00FCD1274A161D2449244F306820F0030001433868C0080CD2106810F0030F0AD080
:202A6C0041F003003060106800F003000328FAD101E041F001011B483160006820B11A4882
:202A8C0000681846FEF7D6FA184819490560194F0A686FF35B4247EA020008601649086835
:202AAC00C0F30130012806D10A681448104040F400320A60086020680028FCD1F8BDFEE7B9
:202ACC0018130050A0100050840460425C600C40082204430C00684204000020B03F0050B3
:202AEC000040034080012843000120438C210840482003400000390104000940FFFFFCFCDA
:202B0C002DE9F04F0C464549CA7AADF12C0D84460592487B09900D7900958A7A488B4B8AD5
:202B2C000E7B91F805A091F802800492B1F846E008904A7A088B0392CD7807900A7AC88A2C
:202B4C0002920F6A0690CA79888A01928A79E146A9F54079B9F11D0F10D8DFE809F05B552F
:202B6C0053514F4D4B494643413F3C3A380F34312E2B2923201E1C0F19181716BCF1280FFA
:202B8C0049DA604602F062FB21E0099EB246D046CDF814801DE00898079007980690DDF8C4
:202BAC0018E005E03831086820608888A08032E070460AE0B1F8440009E0B1F8420004E04C
:202BCC00B1F8400001E091F83E00034612E0208021E0059804900498039001E03231E2E70F
:202BEC00039802900298009006E0019A87310DE068310BE01846EAE7009D0BE02C31D2E7FB
:202C0C00276008E0583100E048311022204600F00FFF00E025700BB0BDE8F08F6C050020DC
:202C2C002DE9F041444C94F8E700ADF1280D00286FD1394F387B01250021242284F8E75088
:202C4C007E6884F8E6000823C4F80C6101A803F0DFFE002604F10C00069601ABADF81460CB
:202C6C002E490796324603F0CFFE2D4904F1300001AB324603F0C8FE2A4904F1540001AB1C
:202C8C00324603F0C1FEB868014628468847DFF89C8025487B7B0078D8F80410C1F381571C
:202CAC001BB1032F03D184F8E150032F16D0022F14D0012F26D103201D4C009031464FF063
:202CCC0040521C23204602F0E5F8009531464FF400720923204602F0DDF813E0022002F0C1
:202CEC0047FF032F0CBF4FF47A7142F21071114800685434B1FBF0F1204603F0BDFE204652
:202D0C0003F0B6FED8F80000C00802D2304602F02FFF0AB0BDE8F0812C6D0000374000001E
:202D2C009D3C0000C53E0000001D0020B03F005000A00C40A06D0000B00D0020F8B503F0B9
:202D4C0065FB3F4E3D4F0446A00822D3B96A01B33D460020A8628A69086906F108032040BD
:202D6C00104340F0020088610A6918689043186001F1100090E80C0030681A1C90433060E4
:202D8C0005F1300002F0E8FC022105F1C80003F0A9FBB86AA10814D200F110020CCA002108
:202DAC0022400B4008BF002A0BD0016985690C40F8622C434FF48041846107F1C80003F085
:202DCC0091FBB86A002837D107F12404204603F08CFD051C30D0F868E968884226D1A86864
:202DEC0001F09EFF17490860E0B906F1080128690A6810430860326805F1100393E80300F9
:202E0C00081C1043306000233361A86846F80C0C06F1100000680028FAD0204603F00EFBBF
:202E2C00BD62F8BD086801F089FCF8BD07F1C8004FF4805103F056FBF8BDC0468808002094
:202E4C000C100440F01C00202DE9F0430746ADF11C0D03F0D5FD02F02BFE4FF00009064609
:202E6C00CDF80C9003F0CCFC30F0010002D00398B04202D16FF0040066E078684C4658B1B3
:202E8C00B0F1FF3F05D004A902F0FAFD30B1804659E04FF0FF3000E02046049003F0ACFD18
:202EAC00049D4FF001082D1802E00A463BE004937068049903F09CFD00282DD0684601F02F
:202ECC001FFDD8B99DF8040005A902F08FFB88B9BB68BDF814009DF80610029A984748B12A
:202EEC00BDF814009DF80650B881029BBD73C8463B6111E0029903A802F0F4FE0498641C2B
:202F0C00B0F1FF3FD4D00028D2D003F075FD2B1A02D004989842CAD2039F03F0D7F906F16E
:202F2C00080547B13A4652F80C1C0029BDD1296842F80C1C2F6003F0EDFA24B1706803F0DB
:202F4C0053FD641EFAD1404607B0BDE8F083FEE710B5401EADF1300D3FD0C01E36D0401E3F
:202F6C0037D0401E61D103F039FC00208DF82800082003F09DF8041C0CD00121182203F0BE
:202F8C00DCFB03F0A5F80AA90123294A0091214602F06AFA102003F08BF8041C10D001215E
:202FAC00192203F0CAFB9DF82800401E208101AAE26003F08DF81F4A214602F037FAA0B3AB
:202FCC0006A940F21530FFF79BFD2EE01A4803F08EFC142002F0C8FE27E04FF4417008A9AC
:202FEC00FFF78EFD9DF821408DF805409DF822308DF8063000228DF808209DF825108DF8C4
:20300C0007209DF820008DF80B109DF824408DF804009DF823308DF80A4008498DF80930E0
:20302C0001AC22680A60606848600CB010BDC0462B6700001D67000074020020C70A002047
:20304C002DE9F041334832490860FFF7C3F84FF08055D5F8D801304C036801210A46204695
:20306C009847D5F8D80142680121204690472E4C0025032004F1180141F80C5F401E8D60F7
:20308C00FAD1241F062004F14C010A46401E22F80C5BFBD10820214F0880214A8F602149CF
:2030AC00121D22F00303CF1A6762E3612362E66904F12008944618460A4601E026F8025BF2
:2030CC00B142FBD8B910E82700EB810121F8045C4FF6FC761F8006EA0C0300F1E807D21A3F
:2030EC00676106EA0201EC39A0F8E810284600F0A1FEA061D8F80000606101F031F902F0B8
:20310C0025F802F039F903F06BFC2846BDE8F0816C120020C14F000000400340FD600000F6
:20312C00011D0020483F0020C40E0020F0B5ADF1340DFFF775FD304908682822082340F032
:20314C000200086001A8002103F06EFC2B4E2C490524002301AA079406F1C80003F060FC44
:20316C0000213022082301A803F066FC0025FF271921244AADF81C5001AB099706F14C0014
:20318C00009503F055FC2822082301A8294603F04BFC1D49079406F1FC0001AA2B4603F080
:2031AC003FFC01A829463022082303F045FC0124ADF81C40099706F168001A2101AB134A96
:2031CC00009503F035FC12492A4606F1A400134603F01AFC0F4803F0BFFA86F8A350757108
:2031EC00F57135727572B5727561B4714FF6FF70A6F8A0000DB0F0BD002009408808002038
:20320C00C16400002D600000E9360000094A0000955F00002D3600002DE9F04104469C46B4
:20322C0006AF0878DFF8C8803B8802284FF0FF0750D148684578007842F6021600EB052096
:20324C00801B16D04DF2EF64001B18BFB0F102003ED1002B3AD1BCF1010F35D11078CA68F8
:20326C001070C968474600248F4214BF0227271C33E05BBBBCF1020F26D15078157805EBAD
:20328C00002535F001061DD1C86806682046314602F03EFF00280CBF0020807885420FD088
:2032AC002046314602F034FF48B931464FF6FF7002F02EFF002808BF11240CD0048085703C
:2032CC00002408E0802406E00D2404E00B2402E00A2400E00124FF2F07D04046001D0068E3
:2032EC0018B1016809B1384688472046BDE8F0818C0C00202DE9F843044603F0C5FB814640
:20330C002D48021992F8ED10491ECFB2002F82F8ED704BD12B4D05EB84052E78698836F0D2
:20332C007F0788461AD1F10911D24FF08054D4F8B801806901464046884704F5DC74206877
:20334C00406B0146404688470228F8D121E000EB8800D0F80011002088471AE04FF08054DE
:20336C00D4F8B801006A014640468847D4F8B801806A014640468847D4F8B801006B014674
:20338C004046884701210D4A0D48116001688908FCD306F03F003F2801D0FFF7ABFF6878D7
:2033AC0000F03F003F2801D0FFF7A4FF484603F067FBBDE8F883C046B00D0020282008606B
:2033CC0028200840806B00002DE9F041064603F05BFB2D4D8046A91991F8ED00421C00288C
:2033EC0081F8ED204AD1294C04EB8604277807F03F003F2801D0FFF7E7FF607800F03F0042
:20340C003F2801D0FFF7E0FF668837F07F001AD1F80911D24FF08054D4F8B80140690146A8
:20342C003046884704F5DC742068406B0146304688470128F8D121E005EB8605D5F80011E7
:20344C00012088471AE04FF08054D4F8B801C069014630468847D4F8B801406A014630463D
:20346C008847D4F8B801C06A0146304688470121074A0848116001688908FCD3404603F0C0
:20348C00FFFABDE8F081C046B00D0020806B000028200860282008402DE9F041304C0546F5
:2034AC00A0781F4616468846ADF1380D012803D0FFF73CFE0120A070B8F1000F09D0C5F8CB
:2034CC00048036B1AE6003F0DFFAE17819B103F0D7FA00203CE0491CC9B2E17003F0D0FA8A
:2034EC0001243FB91C494CC909A84CC006C909AF80E80600386828607868E860387A2874D9
:20350C00F8686861386900B1A8610021782205F1200000F051FD684600212422082303F0D9
:20352C0093FA8DF8184005F1380000216A4603F087FA684600212422082303F069FA0749BC
:20354C00069505F1700000226B4603F05DFA28460EB0BDE8F081C046046D00008F68000091
:20356C0088080020F8B503F01BF903F025F9044604F00C000C2845D0E0081ED202F04CFC25
:20358C00234E376805460120014602F010FE31686943884211D21F4C8220B0FBF7F0291A88
:2035AC00204603F069FA204603F062FA0120FEF719FA204602F0DCFD25E0200922D21648B4
:2035CC00610939BF016821F00101016841F0010102460160D2F898004FF0805440F0030014
:2035EC00C2F89800D4F8B8018069014620208847D4F8B801094C806B2168804701202060F3
:20360C00206800E030BF03F0D1F800F015FFF8BDA06D0000BC0D00208C2108402C20094052
:20362C00042998B54BD1264C04F1240003F05DF940B994F8A300400838BFE06804D3D4F8C2
:20364C00880000E0C068E06041681E4A09781160416812680978914207D087692FB16FF00E
:20366C00FF0100224FF00073B847022002F080FA1120FFF7A9FE0120E071E168087C10B10F
:20368C006079012803D00E20FFF79EFEE16849680D488F680FB9CF681FB10021C1610B4FD7
:2036AC0007600B4A40F2FF7111600027876109494161094803F050F8192003F08DF998BD99
:2036CC0088080020D02108400010044051000706000004600200004055280000F8B503F080
:2036EC00D3F92A4C0746D4F89C0010F4602F2CD0D4F89C00400CC5B2680807D2A80803D23F
:20370C00E80828BF022502E0012500E000256E1D70B201F09DF9D4F89C3005F1110101209D
:20372C00884023EA00013846C4F89C1003F0A8F904EB8500D0F88C7057B1D4F88800314622
:20374C0000224FF00063B84702E0384603F098F9D4F89C0020B104F1FC00002102F0C2FEB9
:20376C0094F8A300800810D3D4F898703FB1D4F888006FF0010100224FF00043B84794F8FB
:20378C00A30000F0FD0084F8A300F8BD88080020F8B50D46EEB2290824BF25494D40254AEB
:2037AC00B300D15885EA01040440C4F3006C224C00EA050781433C4000F4E0272143B7F597
:2037CC00E02F01D14C0E15D300F4E0245CEA040710D001F4E027B7F5A02707D0B7F58037E8
:2037EC0004BF21F4003141F4A02103E021F4803141F4C021114CD150C10D04D3A4F18001C6
:20380C00C5F380528A55000E11D303F03DF9290E03D201210022B14002E00121B1400A4692
:20382C00503423688B431A43226003F029F9F8BD006000A000100840FF7F077F80200240B8
:20384C002DE9F0410E46294990461C4606AF8C4672680878BB8851783F881278002502EBC7
:20386C00012242F62321521A29D0521E052A18D9921F0CD0263A34D1072F30D8C7F10700B9
:20388C00984298BF83B2674407F1080121E0B84225DBC01B9842D8BF83B22380DCF8040013
:2038AC000BE0F06802F080FE80B2B84217DBC01B9842D8BF83B22380F06839180AE0082F3D
:2038CC000DD8C7F10800984298BF83B207EB0C010F31238040461A4600F0AAF803E0072568
:2038EC0001E025800A252846BDE8F081B80A00202DE9F04114460F4603F0C6F81FFA80F869
:20390C001F480068007808B902F0D2FCE7B138684FF0FF3518B140280AD3810B08D17E68CF
:20392C001EB1310A04D0310E02D1B9680F2908D93DB10CB1284620700820FFF7DBFC00248F
:20394C0018E07968BA6803E04FF480700122014602F0DEF80B49012008600B49086840082F
:20396C00FCD30A4800684168022088470CB1002121700446404603F083F82046BDE8F081EF
:20398C003C6D0000A802504208800240CC010010F0B520480127F84201D001F0E7F9204D11
:2039AC00204F214EBD4206D203CD0478A4003459401CA047F6E71D48002800D08047164D22
:2039CC00164FBD4202D210CDA047FAE7F0BD03251BE0416808300A1C2A400BD11A1C2A4041
:2039EC00AB4305D0046804300C600431043BF9D1131C05D0047801300C700131013BF9D149
:203A0C00021C2A4001D0A84304300368002BE0D17047C046FFFFFFFF000000000000000022
:203A2C001072000070720000CC71000059C50110002A4AD05FEA000C8B071CD1830722D115
:203A4C00102A08D370B4103A78C978C0103AFBD270BC103238D0042A2CD3082A05D30C2A64
:203A6C0024BF08C908C008C908C008C908C092072AD0920F22E00B780370491C401C521E2F
:203A8C0022D08B07F7D1C30714D18307D8D0121F12D308C903801B0C4380001D121FF8D281
:203AAC000AE008C903701B0A43701B0A83701B0AC370001D121FF4D2121D05D00B78037076
:203ACC00491C401C521EF9D160467047F8B50546880F3CD31E4E30681E4F20F0020040F42D
:203AEC0000703060032147F8041C41F23004BC60012139605022BA6039604FF4CA63BB6049
:203B0C003960154847F80C1C02F026FE134FB81C0078012803D005F1380002F065FF0024D4
:203B2C000220346002F00CF81120FFF7E3FB287C10B90E20FFF7DEFB3846094A047211788E
:203B4C00447221B11470C830042102F0CBFCF8BD000004600C4104402D36000088080020BA
:203B6C00EC1C00202DE9F8432020EFF3118780F31188214CA068012102F02AFF4FF00109FF
:203B8C004FF0000865692168A4F81C906A1A2168A4F81E80461B401A904227D387F3118852
:203BAC0040464519361A4846294602F00DFFB042F7D92021EFF3118781F31188E18B0129AA
:203BCC0003D14046294602F0FFFEB0F1FF3F06D0A169801B814238BF081C411901E0A069A5
:203BEC00291802F0EDFEA4F820902560A4F81C8087F31188BDE8F88378010020B0B5044617
:203C0C00A768ADF1280D5FBB0C2000F013F9071C1DD0684600212422082302F0F9FE002318
:203C2C0006976A466168ADF810301848059302F0C3FE386070B90820ADF824000C25ADF84A
:203C4C00265009A801F004FF384602F035F86FF0030018E0E06878602069B860A7600AE094
:203C6C0002F034FB0546386802F082FA2069B860284602F04FFC3868616802F0FDFE38687C
:203C8C0002F0F6FE00200AB0B0BDC046716700002DE9984302F0F8FE1F4CDFF87880814633
:203CAC0004F1E000007850B94446A0680146022088470746102001F059F92FB320E000F046
:203CCC00E1FC002820460FD1144909683222B2FBF1F101B9012100F13004204602F0CCFEB9
:203CEC00204602F0C5FE0FE044460022A16880F8E020022088470746102001F037F91FB122
:203D0C00A068014603208847484602F0B9FEBDE89883C0462C6D0000B00D0020A06D0000D6
:203D2C002DE9F04180462048001F076815460E46ADF1200D4FB106A8009042464FF6FF717F
:203D4C001B230120B847024600E0002205922AB300200090BDF81800FF270DF11203294616
:203D6C0001904046029700F017FD041C11D16889ADF81000700804D302F0AAF91B2307466C
:203D8C0000E01D23404604A93A4601F0CBF8041C05D004A81B2102F0C1FA00E01524204687
:203DAC0008B0BDE8F081C046EC11002070B51E4DAC68064602F006FB4FF47A71001B48434F
:203DCC00030C02F069F82969401A48BF404240F6B8319B19994210D306280EDAE9688C423A
:203DEC000BD8286848B1114A091B51438A0C02EB1141884288BF011C08E00D4948684008FF
:203E0C000ED208687D2100F0FF004143C82905D3B1F57A6F88BF4FF47A6103E0C82101E0CB
:203E2C004FF4FA61084670BDD81C002040420F00AC3F0050F8B5001D84B214F0030002D0A4
:203E4C00241A241DA4B202F041FA1A4A102C014657691161C8BF9769388800221646C30BA8
:203E6C00DD0319D126B984420ADD3A46012617E01388C3189BB29C42138011DC1746184666
:203E8C009FB1001B80B20428B4BF3C88385344F400443C803F1D08E080F40040002680B203
:203EAC00C71938880028DAD10027084602F032FB3846F8BDC00E00201CB5042002F096F958
:203ECC00022818D0032816D016480068C0F38150032814BF41F288324FF47A721248144C95
:203EEC00016854342046B2FBF1F102F0C5FD204602F0BEFD1CBD03200C4C009000214FF0C5
:203F0C0040521C23204600F0C5FF012000214FF4007209230090204600F0BCFF022001F0D3
:203F2C000FFE1CBDB43F0050A06D000000A00C40B00D00202DE9FF410E4605461A4C718822
:203F4C00E08A81420CDCB188814209DBF088218B884205D13089618B884208BF18271FD038
:203F6C00052001F073F977888046F188B388ADF80270A08AADF806100C4AADF80000378983
:203F8C00ADF8043011216846ADF8087001F0B3FC071C05D1A57304F1F000414601F09EFA99
:203FAC0038460090BDE8FF816C050020D7680000002213460A46194671B510F0030F0BD0B5
:203FCC00002A82BF00F8011BB2F1010210F0030FF6D1002A08BF71BD11F0FF0141EA01216A
:203FEC00042A18D341EA0141082A0FD30E46102A08D30C460D46B2F10F0312F00F0272C013
:20400C00103BFCD812F0080F18BF42C012F0040F18BF40F8041B12F0020F18BF20F8021B21
:20402C0012F0010F18BF017071BD7047F8B50E46044602F015FD0546304601F0ABFE071C68
:20404C0003D1284602F008FD26E0F87F10F0070F1BD113487968884202D079682166786084
:20406C0002214FF0E04204F1580080E80600284602F0F2FC04F138004FF0FF3102F0B8FC65
:20408C0004F1680797E80300F8BD284602F0E4FCF87F10F0070FFBD102200021F8BDC046E2
:2040AC00C54D00002DE9F041082504240746ADF1180DADF800500E46ADF8024068460194C3
:2040CC0001F0C6FC00280CBF029B002312498868F3B11F809E708046ADF80C500C20ADF83A
:2040EC000E401F46CE68049003A801F0B1FC60B9059951B18F60304602F05AFCB8F1000FD0
:20410C0006D0404602F070FC02E0384602F02AF906B0BDE8F081C0460802002038B5054630
:20412C0001201A4C68712879B0B902F0CFF82178002904BF6FF00704051C15D0491EC9B279
:20414C00217039B902F0E6F9606801F071FD0020687118E0054613E002F0B8F80546207824
:20416C00FF2805D16FF00604284602F0D3F90BE0401CC0B20128207002D1606801F06FFD37
:20418C00284602F0C7F90024204638BD0412002070B50646B079F4680628A4F10C042CDA6F
:2041AC003079062829DA02F091F8154DB27991000C3501EBC20169184968E1B102F0AAF937
:2041CC0030792071B0796071307AA071B179880000EBC1002818F1684068083001F082FD9D
:2041EC00B179880000EBC1002D186868406802F0FBFB002070BD02F08DF96FF0020070BD5D
:20420C00000F002038B519491A4C00204822C1F8F30F94F8E200C1F8FF2F20B3012817D031
:20422C00022807D003281ED151F8310C00F024F80B2016E051F8315C2846FDF7E3FE40F259
:20424C00FF50A84202D8801CA842F1D2082008E051F8310C00F0B8F9054800780028E7D01B
:20426C00052084F8E400FEF76DF938BD39400C403A6D0000B00D002038B51A4CA0F5C0600C
:20428C00D4F8B810C4F8D4000029B8BF49420028B8BF4042814220DAB4F8BC00124D3021CD
:2042AC004FF47F4208230090284600F0F3FDB4F8C00004214FF4F80212230090284600F0F4
:2042CC00E9FDB4F8D00020214FF440620A230090284600F0DFFD012000E0002084F8D800DE
:2042EC0038BDC046B00D002000A00C402DE9F8438146EFF31188202080F31188174D154C4A
:20430C00134F012605F11C000660A4F114000660F86A016A14208847D9F81000810C14BF70
:20432C00000C04202060386802682321002090470948066054F8180C20F4C02040F480307D
:20434C0044F8180C2E6088F31188BDE8F883C04684010010182009408002244300002443C3
:20436C00B0B5ADF1400D02F07FFB044600213C220823684602F018FB11484168069181684C
:20438C00006804900F480068002205900E480891694602F005FB071C0DD001F097FF05463D
:2043AC00384600F04BFC30B1284602F0B3F8204602F04EFB01E000F077FB10B0B0BDC04639
:2043CC00B46A0000C40E00204566000030B5401E4FF00004ADF12C0D0AD0401E04D0401E4F
:2043EC0020D1FEF7AFF81DE000F032FA044619E001A821462422082302F00AFB06940D4D5C
:20440C00ADF8144009490794012201AB05F1780002F0FAFA064A23462C2105F19C0000935C
:20442C0002F006FB20460BB030BDC0467545000011420000B00D0020164880B507683FB38B
:20444C0015498B6803EA5300C00E21D2134A106880081DD2486880081AD21068096810F0A5
:20446C00050F4FEA114101F0F00101F5E0710AD1B9420DD2190F38BF40F00100D90E38BF85
:20448C0040F0040003E0B94202D920F00500106080BDC04628500940AC3F00500000094016
:2044AC00F8B5844640F6FF741CF8013B002210E0481B401E10F8015B7F1E01F8015BF9D18D
:2044CC0003E01CF8010B01F8010B521C5B08082AEADA5808F5D21CF8010B1CF8015B05F055
:2044EC000F07FF1CC5F30315122F45EA001508D11CF8016B300A24BF1CF8010B60F3DF164C
:20450C00F719AC42D4D1F8BDD0B5044602F078FA00F094FB071C08BF6FF002041FD001F056
:20452C00D5FE0146A2880F480023243030F80C6F5EB902804760A268826023737868206197
:20454C000024084601F0E6FF09E0964208BF6FF00204F6D05B1C062BE8D300F0A5FA2046FC
:20456C00D0BDC046DC0E00201648144A144908B5E4300078801E0A2807D8DFE800F018149E
:20458C00100614100614100609C002F045FA11E010688008FCD250688008FCD20AE0086884
:2045AC008008FCD306E008688008FCD202E010688008FCD3FDF7C6FF08BDC04634600C40D7
:2045CC0038600C40B00D0020134910B50A684BF2F5214843040AC2F38140012806D101F028
:2045EC005BFC00F0ABFE604304EB90540C4901F1E500007830B90948006820F07F402418F8
:20460C00640802E0002081F8E50006480460210C41600123836010BDB43F005010200940B2
:20462C00B00D00203C600C40B0B5044602F0E8F830F0010008BF6FF004041ED002F0E0F920
:20464C00054601F043FE01460D480622403030F80C7F6FB1A388BB4208D140680068002297
:20466C00854208BF0122A260002403E0521EEED14FF0FF34084601F04DFF2046B0BDC0466F
:20468C00C00E002008B5012001F0B0FD01281DD00F4834210122002300F078FD002808BF48
:2046AC00002014D00B48006801F046FC01F08AFE0A4A93681168D060C01A074BA1EB910141
:2046CC004343180C884228BF011C1160012008BD00A00C408000001040420F00D81C0020DE
:2046EC0098B5154B1B1D18680004070C21D001F0D3FB104991F90720824205DD10F1800F42
:20470C00B8BF6FF07F00C8718C88BC4210D80A68D3F8D40F801A801C1F2888BF1F203F1B88
:20472C004008C7404FF6FF70E719B84238BF071C8F8098BDF41C002030100940F8B507463F
:20474C0002F0A2F9124C06462079E0B1401EC0B22071C0B904F1C800082101F0C3FE97B132
:20476C00E068703001F004FDE0680A4DC0683F1A286804F1A405B7FBF0F1284602F07CF99D
:20478C00284602F075F9304602F07AF9F8BDC04688080020A06D0000B0B504AF3F88002FDE
:2047AC0018BF0B2025D1087802281FD14D686C782F7800204FF6F17507EB04277F1B012F69
:2047CC000ED9FF1E0CD07F1E1CBF011C0A200FD105241C80C9680B68136009791171B0BD01
:2047EC0001241C80C96809781170B0BD002101201980B0BD1549096821280ADC212819D0D4
:20480C000C380FD00D380FD0001F0FD0C01E0FD01AE0253810D0001F10D0401E10D0401EB8
:20482C0010D011E0086870474868704788687047C868704708697047486970478869704747
:20484C00C8697047086A704700207047F001002038B5134D95F8E100002410B911480078DA
:20486C0060B102F011F995F8E310002906BF012185F8E310012402F003F90CB1002038BD3A
:20488C00022001F075F90E20FEF79EFD01F0B6FB01280EBF0120002085F8E20038BDC0469A
:2048AC00B00D00203A6D000010B502F0EDF8124C611C097829B10F490C6802F0E1F8204699
:2048CC0010BD02F0DDF801F051FE0C4A002301F0E5FDA26C002314001B184FF07A024FF03A
:2048EC00905044EB0104C11842EB04021046001C10BDC046043004408808002000093D00D9
:20490C00D0B5044602F07CF801F0D2F8061C08BF6FF004001DD001F0D9FCB168002908BF93
:20492C00002709D051F80C2C0023B2600F4641F80C3CFF2601F8026C01F0ECFDA7603FB182
:20494C0017F8080C207117F8070CA0710020D0BD0220D0BD012838B51ED1012001F046FCAF
:20496C0001281BD001F046FD0D4D0E480122322305F1E00100680A70B3FBF0F404B9144659
:20498C003035284601F0F4FB2846214602F074F8284602F06DF801E000F0AAFE002038BDD2
:2049AC00B00D0020A06D0000084610B500F0005100F00400084317D0012001F017FC0E4C08
:2049CC0001280CD0094909686C3432222046B2FBF1F102F051F8204602F04AF810BD04482C
:2049EC0001F0BAFE0348046010BDC046A06D00009114000000100440C008002038B512484B
:204A0C00104C0168114D0C40E1430160A10908D34068800905D328464FF40051C83001F01D
:204A2C0061FD14F4602F0BD0284600F19C010A6804F46024FC3014430C60002101F052FD60
:204A4C0038BDC04620000E00081004408808002098B5044602F018F88446104890F8A3101F
:204A6C00C90803D390F8A210A14213D0B0F8A0300B4F012202FA04F11943A0F8A010391DA3
:204A8C000B6804F10C07BA4093430B600F680FB900210170604601F0F3FF98BD88080020F5
:204AAC000810044000BF704708B5FFF7FBFFFEE738B50D4C0546A06820B10C48B0F1FF3FE9
:204ACC0000D080470A4800688047606810B1014628468847206800B1804706480068804728
:204AEC00FFF7E2FF38BDC046D8110020FFFFFFFFFC11002000120020DCB5044601F080FF29
:204B0C0000F0D6FF064601F07BFE30F0010014BF002E6FF0040017D0606858B1B0F1FF3FF2
:204B2C0005D0694600F0ACFF30B107460BE04FF0FF3000E0002000907068009901F058FF7A
:204B4C00002700B901273846DCBDFEE72DE9F04106461148401C90F8008014460D46102018
:204B6C0001F0A6FA071C12D00421072201F026FD404601F030FA38727E72BD72FC6001F07A
:204B8C00A7FA044A394600F051FCBDE8F0810420BDE8F081D16800006C050020F8B504464D
:204BAC0001F02EFF00F04AF8071C19D001F08EFB84460D480021243030F80C6F6EB94FF670
:204BCC00F872028047600025856021717868A060604601F09FFC2846F8BD491C0629EBD313
:204BEC00FFF762FFF8BDC046DC0E0020F8B516460C4601F049FF02460F484178832554B1F4
:204C0C00641E02D0641E10D00DE08179012904D0B0F8A01005E0876A0FB9802506E0806A82
:204C2C00818B318002E0032500E03170104601F027FF2846F8BDC046880800202DE9F84389
:204C4C00804601F043FB0F4C03250026814654F80C7F5FB93046C4F800800146A6600A46A5
:204C6C0001F09AFE606018B9FFF71EFF474501D1264601E06D1EEAD1484601F04BFC3046CE
:204C8C00BDE8F883DC0E0020B0B5054601F0B8FE044601F0B5FD30F0010008BF6FF004044B
:204CAC0014D001F013FB0A4A002132F80C7F4FB153681B689C4204BF2971002404D0491C05
:204CCC000629F2D36FF0040401F024FC2046B0BD000F00207CB5114D04460E46600807D3EB
:204CEC00B0B20021009001220B46284600F0D2F8A00807D3B0B200900021022201232846AE
:204D0C0000F0C8F8E00807D3B0B2009000210C220223284600F0BEF87CBDC04600A00C4070
:204D2C0038B50546287B00F00F00022818D10D4C2078012814D0FFF7B7FDA9686FF07045AD
:204D4C008908A1EB900085420ADDB0F1704FBCBF05490844E168C96801F57A71814200DB7E
:204D6C00002038BD88080020F6FFFF1FF8B506460F4D104F7388002417E0A00000EBC40036
:204D8C00321851689068D26852B9AF420BD00A7855F822200346491C08461946904701E0D7
:204DAC00FEF746FE7388641CA4B2A342E5DCF8BDCC710000D87100002DE998430446276E2C
:204DCC009946904607B1B8470221002001EA080110EA090008BF00290AD104F1580090E891
:204DEC00060008EA010119EA020008BF002907D004F1680080E8000304F1380001F0F4FD0A
:204E0C00BDE898830F48B0B58178062918BF072917D14578848A0E2001F04AF9071C10D0C3
:204E2C0004210A2201F0CAFB284601F0D4F838727C811320387301F04BF9034A394600F0BE
:204E4C00F5FAB0BD6C050020CB680000104A1068C0F30F314BF69A10884207D111680B2030
:204E6C00B0EB117F14BF0020042070472430884208BF01200BD04BF64130884208BF0320E6
:204E8C0005D0213888420CBF02204FF0FF30704718130050B0B500EB4100102B04AF00F50D
:204EAC00007403D3103B00F50174120C3D889D4045EA024501F074FC002700B90127064AF8
:204ECC00394610680028FCD025600120106009B101F06CFCB0BDC04600800C40F0B50D467B
:204EEC0014461F460646002124220823ADF1240D684601F08DFD00200590ADF81000084857
:204F0C004FF47A71A2B26B4600680697B1FBF0F080B229464243304601F076FD09B0F0BD5B
:204F2C00A06D00002DE9F04105461E4690460C46142001F0BDF8071C13D03246032101F0CD
:204F4C003DFB3D81002038744046FC6001F043F8787401F0BDF8044A394600F067FABDE820
:204F6C00F0810420BDE8F0810D63000070B5104C0646204601F06CFC0025B0B92046FBF798
:204F8C0079FA0446A06806420AD0E068226900210346304698470546012D08BF012005D056
:204FAC00204601F0A0FC041CECD1284670BDC046B00D00200F4A01465068ADF1080D08B9CB
:204FCC00002050600846801E12D0801E10D0401E07D001208DF801009DF801000028FBD143
:204FEC0006E001208DF800009DF800000028FBD102B07047080200202DE9F04101F00CFCBD
:20500C000D4D2B688046A3B105F194070024012606FA04F018EA000F07D057F8240020B181
:20502C00026812B1214690472B68641CE4B29C42EED3BDE8F081C046001B0020F8B50B465C
:20504C000E49CF788D784E780C78002298B1401E10D0401E0DD0401E0AD0401E18BF0222E2
:20506C000AD108460C30016819600079187103E03D462E4634461C701046F8BD8C0C002038
:20508C000C4885460C4885446F4607208743BD460A486F4607600A48002803D07946491D3F
:2050AC008E460047FEF774FC01F0ECF901F070FCFEE7C046483F00200004000070120020F9
:2050CC00316800002DE9F04104460E48057890460E46102000F0ECFF071C10D032460421F2
:2050EC0001F06CFA284600F076FF3872FC6000F0EFFF3946424600F099F9BDE8F0810420D3
:20510C00BDE8F0816D050020D0B504463C20FEF791FE071C14D000213C22082301F044FC4A
:20512C00207AB86160893862E068386160683946002201F035FC0646384600F0BDFD16B97E
:20514C006FF00300D0BD0020D0BD704700B500213C220823ADF13C0D684601F025FC094899
:20516C0000F5B27107914FF4DC71089103210691054900236A4600F58A7001F005FC0FB0CE
:20518C0000BDC0466C050020ED050000F8B51E4609181446102E02D3103E891C240C0D46A8
:2051AC0001F0FEFA002700B9012707483B460768002FFCD02D88012101600BB101F0F6FAE3
:2051CC002C403441A0B2F8BD00800C400E4938B5CA68824210D1487801280DD101F054FCEC
:2051EC000546084800F06CFE0446284601F048FC04F0FF00012802D06FF07F0038BD4FFAB7
:20520C00A4F038BD01000304880800202DE9F04180461C4615460E460E2000F049FF071C9A
:20522C0010D0812038700123FB70A7F804803E817D81BC8100F04CFF069A394600F0F6F855
:20524C00BDE8F0810420BDE8F08170473EB505460020ADF804000A2000F02AFF041C0DD0F4
:20526C000421312201F0AAF9258100F031FF01A90223044A0091214600F0F6F8BDF80400A4
:20528C003EBDC046B3680000F8B5064614460D46142000F00DFF071C0FD00421022201F0D4
:2052AC004CFABE60BD811020B8733C6100F010FF034A394600F0BAF8F8BD0420F8BDC04647
:2052CC00F366000070B50446606810F07F4F18BF6FF0020011D100F0F9FF084D0646287821
:2052EC0028B1686800F0A4FC606800F0B8FC60686860304601F00EF9002070BD041200207C
:20530C003EB50546FFF7FCFA041C15D1287902A900F06CF968B10821ADF80010A868019018
:20532C000321ADF80210684600F092FB6FF005003EBDBDF80800A88020463EBD0D4938B573
:20534C00091DD1F8EC3209681B3800FB00F409060A1643F3072100FB01F519066043091622
:20536C0061434243891201EBE50101EBA24000EB234038BDA010005000B500213C2208231B
:20538C00ADF13C0D684601F00FFB084800F1E00107914FF421710891012106910449002320
:2053AC006A46903001F0F0FA0FB000BD08020020B90B000038B5044601F066FB05460B4805
:2053CC00401C007868B1204600F07AFD0446284601F056FB04F0FF04012C0CBF812002205B
:2053EC0038BD284601F04CFB012038BD88080020B0B504460D46102000F05AFE071C10D0C3
:20540C002146062201F099F90020388115247C81054AFA6000F05CFE39462A4600F006F88F
:20542C00B0BD0420B0BDC046400200201CB51446CA78012A02D18A880A4B1A8000F07EFC24
:20544C0030B9002000906946204600F07FF818B100F020FF044603E00098447800F09AFF49
:20546C0020461CBDE411002038B51C46154600F065FCB0B9002000906946284600F066F84D
:20548C0078B90099487848B90846C1798C4205D10146049889682246FEF7CAFA009800F0CC
:2054AC0079FF38BD10B504460B4802680023D90750080143D007801A99414FF47A7200236B
:2054CC00FCF7A6FC002908BFB0F1004F28BF6FF000406060002010BDA06D000038B50D46CB
:2054EC00044601F00AFA10B1204600F041FE084800684FF47A71B1FBF0F080B205FB00F176
:20550C00204601F0B9FA204601F0B2FA38BDC046A06D00002DE9B0430F46044601F0EBF9ED
:20552C0004F1280292E800034B464246FCF770FC05460B462A464046494600F0AFFF17B1C4
:20554C00303484E803002846BDE8B0833EB5054608200C46ADF800002020ADF802001020B2
:20556C00ADF80400684600F073FA28B90298002818BF6FF0040003D12846214600F062FC97
:20558C003EBDFEE7F8B5064614460D46102000F08FFD071C0CD00421362201F00FF83E819A
:2055AC007D81FC6000F094FD024A3946FFF73EFFF8BDC0469568000070B506460D460C205E
:2055CC0000F076FD041C0CD00421302200F0F6FF2681658100F07CFD034A2146FFF726FF3F
:2055EC0070BD042070BDC046BF680000062880B50CDA0A4F820002EBC00207F10C00875A3C
:20560C0083181FB14FF6F870B84202D14FF0FF3080BD18880880002080BDC046000F002034
:20562C0010B5044600212C220823ADF1300D684601F0ECF8E0200890A168606800236A461B
:20564C0001F09EF9002818BF002001D1FFF72CFA0CB010BD10B5044600212C220823ADF1D9
:20566C00300D684601F0D2F8E068A1680890606800236A4601F084F9002818BF002001D195
:20568C00FFF712FA0CB010BD10B5044600F01EFE094B0022014633F80C0F30B1A04208BFCB
:2056AC00D4B203D0521C062AF5D3FF24084600F031FF204610BDC046000F0020B0B50A4C6B
:2056CC000D46241801F06CF8002700B90127074A394610680028FCD025600120106009B1C6
:2056EC0001F064F8B0BDC04600A00C4000800C4008B503200021FFF7EDFA012000F076FDC4
:20570C0018B10648006800F017FC00F05BFE044B083B586000F0C0FB186108BD80000010EF
:20572C00E01C002038B501F0AFF905460948E030007838B106480024342101222346FFF765
:20574C0025FD00B10124284601F09AF9204638BD00A00C40B00D0020F8B5064637680D4644
:20576C0000242C601FB901F08FF9374608E001F08BF900E03F6839680029FBD1BD4201D055
:20578C003D60012401F07CF92046F8BDF0B5044605AFADF10C0D03B9084B97E860008DE8FD
:2057AC006000FCF791FF011C44BF00204FF0004102D42046FEF73AFC03B0F0BDC54D000061
:2057CC00F8B5064614460D46102000F071FC071C0CD00521012200F0F1FE3E727D72FC6068
:2057EC0000F076FC024A3946FFF720FEF8BDC046DD680000F8B5064614460D46102000F096
:20580C0057FC071C0CD00521022200F0D7FE3E727D72FC6000F05CFC024A3946FFF706FE13
:20582C00F8BDC046E368000038B505460C2000F03FFC041C0DD02946002200F07EFF4FF08D
:20584C00FF30A06000F044FC034A2146FFF7EEFD38BD042038BDC046F95D0000F8B50646E5
:20586C000A4804780D460A2000F022FC071C0CD031462A4600F061FF204600F0ACFB3872E6
:20588C0000F026FC394600F059FAF8BD08020020094910B500200A4C08600120C8611434C2
:2058AC002060216844F8280C04480068016A14208847206810BDC04600002443B0010010BE
:2058CC0018200940F8B5044616460D460C2000F0EFFB071C0DD02A46042100F06FFE3C81E0
:2058EC000520B87200F0F4FB39463246FFF79EFDF8BD0420F8BDF8B5044616460D46102082
:20590C0000F0D6FB071C0DD02A46042100F056FEBC600020F86000F0DBFB39463246FFF79A
:20592C0085FDF8BD0420F8BD1078802811D1508840F27F6181420CD190883F21B1EBA02FCC
:20594C0007D1C0F3C211042903D100F07F00834201D000207047012070471078802811D116
:20596C00508840F27F6181420CD190883F21B1EBA02F07D1C0F3C211032903D100F07F00E1
:20598C00834201D000207047012070471078802811D1508840F27F6181420CD190883F21A2
:2059AC00B1EBA02F07D1C0F3C211052903D100F07F00834201D0002070470120704770B537
:2059CC00044604F128020CCA0846002100F066FD04F1300292E860002D1846EB0106290C07
:2059EC003004014300F00CF9383484E8600070BD10B5401E14460DD0401E09D0801E05D0C5
:205A0C00001F01D0FFF750F8052004E0002002E0042000E00220226821469047002010BD66
:205A2C0010B50446A168606808601420FEF702FA38B10549A368054A096800F069FA002078
:205A4C0010BD6FF0030010BD9C6D0000FD59000010B504462088FFF717FEFF2808BF4FF0F0
:205A6C00FF300AD0054B810001EBC000195811B12046884710BD6FF0010010BD140F0020EF
:205A8C000A4A10B512680C464FF47A710023A1FB0001FCF7BDF9002908BFB0F1004F2EBFB1
:205AAC006FF002002060002010BDC046A06D000038B5054600F00AFC084C03220146243CAB
:205ACC0054F80C0F18B1A84202D0521EF8D10024084600F01FFD204638BDC046000F002087
:205AEC000949020480B5120C41F8082CC0F3074041F8040C0120086004480768002FFCD000
:205B0C000020086080BDC04644600C4084088C4310B50A4C2368C1F30F2102F00F02C0F323
:205B2C008710090440EA022023F4806323601B041B0C0B4323600143616010BD148002402D
:205B4C0010B5044600F0A0FF084BE21892F8E810491EC9B282F8E81021B99A680121A14099
:205B6C008A439A6000F08CFF10BDC046B00D002038B5044600F088FF084A02F108031D68A4
:205B8C000121A14012192943196092F8E810491C82F8E81000F074FF38BDC046B00D002052
:205BAC0010B500F05DFF00F05FFF032000F0E4FE06481030006830B1034C204600F0EEFC1F
:205BCC00204600F0E8FC10BDA1650000A401002008B500F02DFE012801D0FEF7B6FF07481C
:205BEC0000F0C6FE00F02EFA00F0BEFE00F0B8FE00F0B2FE00F0ACFE08BDC046AD5B00006E
:205C0C0010B50C4600F0DEFB211AB1F1004F08D8011B091DC90F05D1001DA04288BF041C36
:205C2C0000E0041D0148046010BDC0461820094038B5044601250DE0C0F11F0005FA00F14C
:205C4C00052881EA040403DB401FFDF753FB01E0FFF776FFB4FA84F02028EDD138BD38B5C3
:205C6C00044601250DE0C0F11F0005FA00F1052881EA040403DB401FFDF7A6FB01E0FFF7B2
:205C8C0077FFB4FA84F02028EDD138BD38B50546084800780C4600F09EF9C2B2044829465D
:205CAC00234600904FF61840FFF7B0FA38BDC0467F6800000802002010B5044600F006FB96
:205CCC00074934F8042C6FF3DF3224F8042C4A690861241F944238BF4C6100F01BFC10BDA0
:205CEC00C00E002038B50C46054600F0EFFA002144F80C1C296811B92C6006E0114651F855
:205D0C000C2C002AFAD141F80C4C00F003FC38BD10B5044660680C3080B2FEF78BF850B117
:205D2C00A18800230181FF22036000F10C0182721846A16010BD6FF0030010BD00B5ADF165
:205D4C00140D8DF8040003910822ADF80020ADF802201020ADF8060002208DF8080068460B
:205D6C00FFF776FE05B000BD10B5094C04F11001096859B120B101F10800097900F0CEFA9B
:205D8C00206900F0FBFA00202061607010BDC04608020020094902460823C87F30F07F0070
:205DAC0005D0B1F91C00824208BF081C04D05B1E01F12001F1D100207047C046B8090020AD
:205DCC00B0B504460D46082000F072F9071C0BD0812038700123FB70BC8000F079F939463F
:205DEC002A46FFF723FBB0BD0420B0BD1078802810D1508840F27F6181420BD19088032838
:205E0C0018BF042806D1917931F0100014BF1129012000D00020704738B52020EFF31185E7
:205E2C0080F31188064CA068002100F0D1FD6169081AA169814238BF002085F3118838BD3B
:205E4C007801002010B50C46ADF1180D02900821ADF8001019216846ADF802104FF0FF3145
:205E6C000191FFF7F5FD0499216006B010BD80B5107802AF80280DD1508840F27F6181425A
:205E8C0008D19088834205D138789179884208BF012000D0002080BD0748816841F3100253
:205EAC00064991F900100068A0F5407041430811121A803210127047285009400C130050BC
:205ECC00084910B50246A1F11C0318680028FCD100240C601A60D8690028FCD00C605868C7
:205EEC0010BDC0461C10044038B500F0CDFD074C054694F8E000012804D1FEF7C3FB0020D1
:205F0C0084F8E000284600F0BBFD38BDB00D002010B5044610460A46211C14BF0028022022
:205F2C0006D0C8608A6003480B6100F041F8002010BDC046B00D002070B5054600F030FC31
:205F4C00002400B90124054E30680028FCD0A847012030600CB100F029FC70BD00800C40E9
:205F6C0008B500F091FD064A117880B229B90549096800230B700123137000F081FD08BDB6
:205F8C00D51100203C6D000010B5084C06492069814202D100F0EAFA606104F1C800042148
:205FAC0000F0A0FA10BDC0462D3600008808002038B50D46044600F094FC00212A46234661
:205FCC00116059685160596801B921460A605A6000F056FD38BD0EB58DF806005021ADF830
:205FEC00001068460021ADF80210FFF731FD002814BFFF209DF807000EBDFEE706490868B6
:20600C00002818BF012005D1044B4020012218600020CA617047C04604800C402C500C4094
:20602C0008B500F0F3F900F0804100F00200084305D003484FF00051C83000F053FA08BD23
:20604C0088080020074808B51030006828B1034800F0A4FA024800F09EFA08BD3D610000E9
:20606C00D9640000A4010020074810B51030006830B1044C204600F091FA204600F08BFA69
:20608C0010BDC04657510000A4010020074908B5283090E80C000020FBF7BAFE002908BF11
:2060AC00B0F1FF3F88BF4FF0FF3008BD907E00000EB501900821ADF8001068460221ADF8C5
:2060CC000210FFF7C5FC002814BF002002980EBD0EB50820ADF800001A20ADF8020068464C
:2060EC00FFF7B6FC002814BFFF209DF804000EBD08B542882D2A28BF6FF0010004D2034927
:20610C000C3151F82210884708BDC046C06A0000064A127842B1091F31F8043F984208BFF5
:20612C00081C02D0521EF7D1002070476C05002010B5064C206900F007FC0146A06800B922
:20614C00E160A068401CA06010BDC046A4010020054808B541680548012208380260486980
:20616C008969884708BDC046E40100200C200940002181820449C0684969814203D10348E0
:20618C00006800F075BC704778010020A46D000010B50446E088FFF777FAFF2808BF4FF0FE
:2061AC00FF3003D0A0712046FDF7F2FF10BD02294FF0000204D0012808BF4FF47A7203E066
:2061CC00012808BF40F2EE22104670471078802809D1508840F27F61814204D1908883420B
:2061EC0008BF012000D0002070477047042807BF4FF0C0421D234FF080521C2301483421EC
:20620C00FEF7C4BF00A00C40002948BF0021044A02EB8000026861F3050202607047C0461E
:20622C00001008400348016803480160034800F059B9C046E0200240E0200260601B002008
:20624C00054A0C321268824218BF032002D10846FFF7B0B87047C04688080020054A0C32F4
:20626C001268824218BF032002D10846FFF7A2B87047C0468808002010B500F005FC84B210
:20628C0000F016F8204600F0FBFB014810BDC0463C6D000050B110F1040F08BF042006D00D
:2062AC0010F1030F0CBF0220012070470020704705490A68107828B9012010704868006841
:2062CC00FDF782B87047C0463C6D000010B500F0CBFB80B260F30F0400F0D6FB80B260F3C5
:2062EC001F44204610BD1CB5044660686946FFF7C7FB20B9009860602046FDF77FFC1CBDD3
:20630C0010B51D23FFF729FB012420B91B23FFF724FB00B90024204610BD000010B50446E2
:20632C00034803681BB10A4601202146984710BDEC11002008B5406810F07F4F18BF6FF0C5
:20634C00020002D1FFF774FC002008BD08B5406810F07F4F18BF6FF0020002D1FFF77FFC62
:20636C00002008BD0EB501900821ADF8001068460521ADF80210FFF76BFB0EBD0EB50190F4
:20638C000821ADF8001068460321ADF80210FFF75FFB0EBD0EB501900821ADF8001068468F
:2063AC000321ADF80210FFF753FB0EBD10B50446A088FDF73FFD0028A06014BF00206FF006
:2063CC00030010BD04480168436802688A42FAD1080440EA134070470820094004488438C7
:2063EC000068C0F302400428C8BF4FF0FF3070471813005008B503200121FEF76BFCFFF78D
:20640C00E1FF0149086008BDE01C0020044908310868C3430B600A681042FBD17047C04649
:20642C0008100440044908B591F8E60018B1D1F80C0100B1804708BDB00D002038B505468A
:20644C0000F022FB2C680CB12168296000F018FB204638BD012814BF002140F2FF71024A57
:20646C00002011607047C04600000460044B03F11002118808431080D86900F0B5BAC046EF
:20648C006C0500200449B1F1FF3F07BF0020011C0868091DFCF7D4BDFFFFFFFF30B502FB37
:2064AC0001F403FB00444FF00005E2FB00542146284630BD38B5044CE56800F0ADF92269B7
:2064CC0001462846904738BD8808002004498868401E886003D10869C96800F031BA7047F4
:2064EC00A40100202022EFF3118382F31188426A1143416283F3118800F01EBA03480449F3
:20650C000068814201D0FFF73CB8704798CA01107047282008B50090BDF8020000F0B0FAC2
:20652C00BDF8000000F094FA08BD08B5406820B10068FFF71DFE002008BD6FF0020008BD9D
:20654C00ADF1080D01208DF800009DF800000028FBD102B0704710B50446FFF785FD03203A
:20656C0000F00AFA204600F013FA10BD034A1168506813688B42FAD17047C046082009402C
:20658C00034B9A1C118808431080986800F02CBA0802002070470349086070470149091FE3
:2065AC0008607047001200204FF0FF31421E12F8010F491C0028FAD108467047812342EA68
:2065CC00C112037042F47C4282800023C370704708B500F0ADF90248006800F0ADF908BD06
:2065EC008401002008B50846FFF7D4FB002814BF8068002008BD00B50921ADF1240D6846F6
:20660C0000F092F909B000BD024A00200821FEF759BDC046AD68000010B504466068FDF7F7
:20662C00C5FBA060002010BD02490968416000207047C046A06D00000246024808B5904734
:20664C0008BDC046C06A000010B500F056F9002400B10124204610BD102802D30149103869
:20666C000860704700EF00E010B5044600F0B0F86060002010BD10B50446FFF753F82071EB
:20668C00002010BD08B500F0EFF900F0FDF9002008BD08B500F044F900F03EF9002008BDAB
:2066AC0008B540680C38FFF707FB002008BD10B5044600F0A1F96060002010BD014616287D
:2066CC00A8BFA0F1200108467047006801092CBF042000F003007047D0F80320C31D08464C
:2066EC001946FDF7A5B908B5022004230090FFF7BEFB08BD08B5142001230090FFF7B7FB86
:20670C0008BD08B5152002230090FFF7B0FB08BD08B5192001230090FFF7A9FB08BD08B5D5
:20672C00182001230090FFF7A2FB08BD08B5122001230090FFF79BFB08BD822303708180FC
:20674C0082710023C370704708B500F0D4F8000C0904084308BD00000149103108607047E1
